:060000000C9448030C946F
:1000060000000C9400000C94C5050C9401060C9499
:1000160000000C94B1050C9400000C9400000C94A4
:10002600D7030C9400000C9400000C9400000C9470
:1000360000000C9400000C9400000C9475050C94C0
:1000460000000C9400000C94D4030C9400001918C2
:10005600170F0E0F1526171214FF0C1C181A17125D
:1000660014FF000000001B1A0F0E0AFF000000001C
:100076000000210F1C0C0F1A0DFF000000001929AB
:100086001C1712200AFF000000001B1D0B0B181C7A
:100096000AFF000000000C181B141A0F1B0F17266E
:1000A6000FFF19170C1C1B1A211C191C1B0B0C1BF0
:1000B60029170C0A1A29FF00001E0F0C1A0A152907
:1000C600FF00160A1A1C0AFF0000000A191A0F156B
:1000D60029FF0000160A29FF000000000012281759
:1000E60029FF0000000012281529FF000000000A61
:1000F6000C0D1D1B1C0AFF001B0F171C290B1A29B0
:10010600FF18141C290B1A29FF001718290B1A2986
:10011600FF00000E0F140A0B1A29FF003E51494535
:100126003E00427F400042615149462141454B31E4
:100136001814127F1027454545393C4A4949300174
:10014600710905033649494936064949291E7F7F03
:10015600417F7F00007F7F006171594F47414949C8
:100166007F7F1F1F107F7F4F4F4979797F7F4979A6
:10017600790171790F077F7F497F7F5F5F517F7FAD
:100186007F7F417F7F00017F7F006373594F476305
:1001960063497F771F1F107F7F6F6F4979797F7F54
:1001A600497B7B0373790F07777F497F776F6F49A9
:1001B6007F7F7F41417F7F00007F7F006171594FC4
:1001C600474149497F7F1F10107F7F4F4949797901
:1001D6007F494979790101017F7F7F49497F7F1FE7
:1001E60011117F7F7F41417F7F00017F7F00637117
:1001F600594F476341497F7F1F10107F7F6F4949E1
:1002060079797F49497B7B0301017F7F7F49497F5C
:100216007F1F11117F7F3E7F417F3E00027F7F005F
:100226006273594F462263497F361814127F7F2F17
:100236006F457D393E7F497B320373790F07367FE1
:10024600497F362E6F497F3E3E41417F3E00027F09
:100256007F006271594F462241497F361814127F3A
:100266007F2F45457D393E49497B320371790F071A
:100276003649497F362649497F3E7C12127CAA7E42
:100286004A4A32AA7E4A4A34AA7E0202AA00603C40
:10029600223E607E4A4AAA0024424A34AA66187E52
:1002A60018667E10087EAA7C11097CAA7E18244254
:1002B600AA7804027EAA7E0408047E7E08087EAA26
:1002C6003C42423CAA7E02027EAA7E12120CAA3C44
:1002D600424224AA027E02AA004E50503EAA0C12A6
:1002E6007E120C66181866AA7E40407EC00E10105C
:1002F6007EAA7E407E407E7E407E40FE027E483064
:10030600AA7E4830007E7E4830AA0024424A3CAA93
:100316007E083C423C4C32127EAA0000AAAA00404B
:10032600AAAAAA007E0408107E00000000000808A1
:1003360008080808083E080806090906AA3E4141B9
:100346004122043F4420AA080808AA004C52524CF5
:10035600AA00AAAAAAAA005FAA000024484824481C
:10036600002400000000183C42FF1F1D1F1E1F1E18
:100376001F1F1E1F1E1F0B0A17292A0B1D0E0F1CDF
:100386002A372A0C2AFF19180E141217262A0E1AB3
:10039600180C0A2AFF000C141528210F172A170A11
:1003A6001B181BFF0E0A1C211214122AFF000B0A2F
:1003B60017292AFF1D1512200A2AFF0019180E19DF
:1003C60018152AFF0B0F101D16170A292A0B0A17D4
:1003D600292AFF000E18162AFF000C180E0A2AFFFB
:1003E6000B1D0E1215261712142AFF0014181A1ABE
:1003F6000F142012292A2AFF1D1B1C0A17180C1479
:10040600122AFF000E0F1726FF000E0A1C0AFF0015
:100416000D180EFF000102030405060708092AFF4E
:10042600170A1B1C1A1813140A2AFF000A17121699
:100436000A2012292AFF0D181C180C17181B1C2637
:100446002A191A122A322AFF0C141528210F1712FC
:100456000F2A191A122A322AFF000C1A0F16292AF5
:10046600191A180D1A0F0C0A2AFFF8FFFCFFFEFFD7
:10047600FFFF208144535441434B454E44004853AB
:100486005441434B454E44000000000001001C004F
:1004960005000000020000007800000000000A00CD
:1004A600000000000000000000010203040506072A
:1004B60008000000CE020000000058020000000004
:1004C60000000000000000002C01000000000000F9
:1004D6000000000000000000000000000000000016
:1004E6000000000000000000000000002604610477
:1004F6009F04DA0410052005FA04B30465041B04FE
:10050600EB03EF031D02E0019201490113010E0105
:1005160039017401AD01EB0125023F0252B8DE3FFD
:1005260085EB01400000004048E1FA3F52B8DE3F4B
:1005360014AE073FF6289CBF5C8F12C0666626C0C5
:10054600EC5118C0CDCCCCBF8FC2F53D1F858BBFFB
:10055600666606C0D7A320C01F851BC052B8DEBF83
:100566000AD723BED7A3B03F3333F33F3333F33F2A
:10057600000000403D0AF73FE17A543F00000000CA
:1005860000000A021A00140A00000000020002001D
:100596007804090060007A0409004F04840401000D
:1005A6006E018E0401006F01900401007101920436
:1005B60001007201940401007301960401007401A4
:1005C6009804010075019A04010076019C0401005B
:1005D600CB029E040100CC02A0040100CD02A204BD
:1005E6000100CE02A4040100CF02A6040100D0023D
:1005F600A8040100D102AA040100D202AC04090039
:10060600E502AE040100EE02B8040200EF02BA04ED
:100616000200F102BC040200F302BE040200F5026D
:10062600C0040C00F702C20402000303CE040A0051
:100636000503D00406000F03DA0401001503E004E5
:1006460001003804E20402003F04E404010041040E
:10065600E60401004204E80401004304EA04010040
:100666004404EC0402004504EE0402004704F004CE
:1006760001004C04820501004D04840501004E046E
:1006860086050900040088050000F894EE27ECBBF7
:10069600F1E0FBBFEBBFE5BFF8E1F1BDE1BDE2E98B
:1006A600F5E085919591009761F0A591B59105903A
:1006B6001590BF01F00105900D920197E1F7FB013E
:1006C600F0CFEFE5EDBFE4E0EEBFC0E6D1E00C947D
:1006D6001B0BA981AA2342F4E881F981AFEFBFEF92
:1006E6000E94461DE883F983E881F98122960895E0
:1006F6000E94DA1D182D092D033028F00E948B1652
:1007060032970E2F02C0065F1150A62DBB27EE278B
:10071600A10FBE1F0E948E160E94251DEA0FFB1F09
:10072600BF01AFE10A9FF001DF01ECE0F0E00E94BB
:100736005E1DDB01AE0FBF1FE7E0F0E00E94661D05
:100746003E2F303021F00E949116319701C0E6E02D
:100756000E94DF1D249608950E949416BAF40E9402
:100766009A160E94A016E150E4BD0E949A160E94B5
:10077600A816E55C7E2EECE3E71509F47724EFE98D
:10078600F5E0E093EF02F093F0020AC00E949A1699
:100796000E94A016E4BD0E949A160E94A8167E2EFC
:1007A60008959798979A18950A921A92FA92AA9388
:1007B600BA93EA93FA93EFB7EA93FF24A091410420
:1007C600AF5FA0934104A83019F4E0E0E093410440
:1007D600979A969AA998E0E0E0934204A091420481
:1007E600A931D8F4A89AE09142040E94B21610806A
:1007F600E09141040E94B61611F4E0E001C0E1E088
:10080600AE2FE09141040E94061DEBBBA898E09133
:100816004204EF5FE0934204E1CFA99A9798E894E7
:1008260085996894F0F8F0FE28C0A5E4B4E00E942B
:10083600C0160E94C616A132E3E0BE0720F0E09182
:100846004304E03009F00CC00E94CB16E1E0E093CF
:100856004304E8E03E2633FC02C0919801C0919A19
:100866000E94C616A93EE3E0BE0730F0E1E2F3E0DF
:10087600E0934504F093460416C0A0914304A130CA
:1008860028F0E0E0E09343040E94CB160E94C616CF
:10089600549718F40E94CB1606C00E94CB16E0911E
:1008A600CE02E093CF029C9B23C0A7E4B4E00E9453
:1008B600C0160E94D116A132E3E0BE0720F0E091F7
:1008C6004404E03009F007C00E94D616E1E0E09348
:1008D6004404E0E43E260E94D116A538E3E0BE07B4
:1008E60030F0E1E2F3E0E0934704F093480410C0EF
:1008F600E0914404E03029F0E0E0E09344040E94F3
:10090600D6160E94D1160E94CB1D10F40E94D61650
:1009160036FE04C0A091CD02A03009F004C0E091DB
:10092600CB02E093CD02A091CD02A03029F0A0E049
:1009360036FCA1E0A03029F4E0E0E093CD02E89493
:1009460036F8C394E4E6EC1519F4CC24689426F83A
:10095600EEE1EC1511F423FC01C006C0E89423F87F
:10096600C598E9B7EF7EE9BFA9E3B4E00E94C016D7
:10097600ABE3B4E00E94C016E991EFBFF991E991AB
:10098600B991A991F990199009901895DD24829949
:1009960002C0849B02C026FC01C019C0829B02C013
:1009A600E2E0DE2E849B02C0E1E0DE2EE89426F82B
:1009B600CC2424FE05C0689423F8E9B7E061E9BFBA
:1009C60022FE03C0E89422F8DD24E89422F8ED2DF7
:1009D60008950E94DC160E945E1D0E94E516EA0F2D
:1009E600FB1FE0933F04F09340040E94DC160E9434
:1009F600661DE70DE0937601A0917601AC3340F0D9
:100A06000E94EA16E0937601AFE3B4E00E94C016B6
:100A1600A0913F04B0914004A03AE5E0BE0750F033
:100A2600E0913F04F0914004E05AF540E0933F0422
:100A3600F093400408950E94DA1D10E01D3310F073
:100A46000C9472051A3050F500E0053030F5A5E03B
:100A56001A9FF001EA5EFC4FDF010E948B16EA0F37
:100A6600FB1FFF93EF93E0917301A2E3EA9FF0016E
:100A7600EE5DFE4FDF010E948E16BD010E94F0164C
:100A8600DB01AE0FBF1F0E948B16EA0FFB1FE4911E
:100A9600AF91BF91EC930F5FD8CF1FC030E03530D8
:100AA600E0F4A5E01A9FF001EA5EFC4FDF010E9428
:100AB6009116EA0FFB1FBF010E948E163A970E94FD
:100AC600F016E058FD4FDF010E949116EA0FFB1F5A
:100AD600E491DB01EC933F5FE2CF1F5FAFCF0E9453
:100AE600DF1D20C30E94F5161A9310E0459B17C020
:100AF600689434F8E89430F8E0E7E5BFE0E0E3BF57
:100B0600E6B9E9B7EF77E9BFE7E2E7B9E0E0EBBBC3
:100B1600E7EFE7BBE0E0E8BBE5BBE2BB1DC06894DE
:100B260030F8E0E3E5BFE3EEE7BBE3E0E3BFE3E88D
:100B3600E6B9E9B7E068E9BFE7E6E7B94ADF0E9448
:100B4600031710E0E09115031E1730F40E940E17EC
:100B56000E9416171F5FF6CF1991DDC0AA93EA937C
:100B6600FA93EFB7EA93E091D102F0E0FBBDEABD5C
:100B7600E8B3A0E2EA27E8BBE991EFBFF991E99172
:100B8600A99118950A921A92AA93BA93EA93FA939C
:100B9600EFB7EA930E941D170F010E9422170E1647
:100BA6001F0694F40E941D170E9427172CF00E941E
:100BB60022170E9427170CF003C00E942B1702C0B1
:100BC600E9B7ED7FE9BF11C00E941D170E942717E4
:100BD6002CF40E9422170E9427170CF403C0E9B7D1
:100BE600ED7F02C00E942B17E9BFE991EFBFF99193
:100BF600E991B991A9911990099018950E94F51655
:100C0600E1E02E26A091CF02A13028F0E091CF029C
:100C1600E150E093CF02A091CD02A13028F0E091FF
:100C2600CD02E150E093CD02A091D002A13028F090
:100C3600E091D002E150E093D002A091CC02A13025
:100C460020F0A0917401A03009F005C0E091CC021B
:100C5600E150E093CC027394ECE3E71511F00C94A9
:100C66008406A0917401A13028F0E0917401E1504E
:100C7600E09374017724AFEEB2E00E94C016689448
:100C860021F80E94E516A03AE5E0BE07D1F5E89402
:100C960034F835F8E0917101E03039F05DDDE0E0DF
:100CA600E09371010E94941662F1E0E0E093EF0296
:100CB600E093F00263940E943717E059FC4FE491E9
:100CC600E61548F4E1E06E2E9394EDE0E91519F48B
:100CD600E1E09E2E8394A82DBB27E4E0F0E00E947D
:100CE600661D309731F0E2E0E91519F4EDE1E615FD
:100CF60009F004C0E3E09E2EE1E06E2EE1E0E09311
:100D06007101A72DBB27E2E0F0E00E94661D309737
:100D160011F4689432F8E991EFBFF991E991B9912C
:100D2600A9919991899179916991F9901990099070
:100D36001895EF97EF97629780E9A0E0B0E0E2EFB1
:100D4600F4E00E94E41D0E94DA1D0E9437178F010D
:100D560000240016010619F4EBE0F0E002C0F801E9
:100D660031979F01F901DE015C960E943B17FF93C4
:100D7600EF93F801DE01AC59BF4F0E944217AF91C5
:100D8600BF91EA0FFB1FE093F102F093F202F90123
:100D9600DE0114960E943B17FF93EF93F801DE01E4
:100DA600D4960E944217AF91BF91EA0FFB1FE093C2
:100DB600F302F093F4020E94DF1DEF96EF9666961B
:100DC60008951A931DE2A981A13059F4AA81BB8125
:100DD6000E945717DF01309711F4EDE201C0FD01C3
:100DE6001EC0A981A23051F4AA81BB81E8E5F2E0D8
:100DF6000E94661DDF010E945C1711C0A981A33005
:100E060039F4AA81BB81ECE3F0E00E94611707C0C8
:100E1600A981A43029F4AA81BB810E9469171E2FDB
:100E2600E12F7FC12597E0E0E883E983E6E0EA83E6
:100E3600EDE0EB83E3E1EC831A930E946E17AE813B
:100E4600BF81EA17FB07E1F0A0913B04B0913C0497
:100E56009997A8F0E0E0E0933B04E0933C04E0912E
:100E66004904EF5FE0934904A0914904A83039F49E
:100E7600E0E0E0934904EE81FF810E94731705C00C
:100E8600E0E0E0933B04E0933C04E0E0E0936D0196
:100E9600A0916D01A53010F00C94220811E01530D8
:100EA60010F00C941F080E947817EF930E947F178A
:100EB600AF91EA1711F40C940F08E0913804E03072
:100EC60029F50E9485170E948917FF93EF930E94C8
:100ED6007F170E949417AC91E09149040E94061D69
:100EE600EF930E9478170E9494176C917727E091F0
:100EF6004904F0E0A8E0B0E00E94A017DB010E94E0
:100F0600171DAF91EA0FAF91BF9184C0A09138042D
:100F1600A13031F4E0916D01A0914904EA1709F07E
:100F26000EC00E9485170E948917FF93EF930E94B7
:100F360078170E949417EC91AF91BF916BC0A09166
:100F46003804A23009F50E9485170E9489170E946D
:100F5600A5170E94AD170E9494171C90E0914904B2
:100F66000E94B61639F40E9485170E948917DF0180
:100F7600EC9108C00E9485170E9489170E94A51748
:100F8600E129DB01EC9347C0A0913804A330A9F511
:100F96000E9485170E9489170E94A5170E94AD1707
:100FA6000E9494171C90E09149040E94B61639F4E9
:100FB6000E9485170E948917DF01EC9108C00E94E4
:100FC60085170E9489170E94A517E129DB01EC937A
:100FD600E0916D01A0914904EA1771F40E9485170A
:100FE6000E948917FF93EF930E9478170E94941727
:100FF600EC91AF91BF91EC930EC00E9485170E94B1
:101006008917FF93EF930E9478170E949417EC912B
:10101600AF91BF91EC930EC00E9485170E9489176D
:10102600FF93EF930E9478170E949417EC91AF916B
:10103600BF91EC931F5F33CF0E94B21729CF20FEDA
:1010460005C0E0E0E0938301E0E804C0E0E8E09357
:101056008301E0E0E09382011881289608951A93AF
:1010660010E01530A8F40E94B817AC91AA3A81F0A6
:101076000E94C3170E94B8170E94CE17AE2FE0E059
:1010860027FCE1E0EA02F0010E94D6171F5FE9CFD4
:101096001881239608951A9310E0183138F4E12F39
:1010A6001F5F0E94B216A0E0A083F7CF19910895A2
:1010B6001A936CDCE23011F030FC01C030C0E1E084
:1010C600ED1549F4EB81EF5FEB83EA81AB81EA171B
:1010D60010F4E0E0EB8310E0153000F50E94C31732
:1010E600AB810E94DB170E94F0160E94E1170E9456
:1010F600D617A12FBB27E9810E94E817E358FE4FB8
:101106007E2F8F2FAB81BB270E9469170E94F01696
:101116000E94E1170E94D6171F5FDECFCACFBBDF42
:10112600EB81188124960895B6DF0E94EC17DF0143
:10113600EAE0F0E00E944B1D0E94F317A881B981F6
:10114600EAE0F0E00E94631D0E94F8170E94EC1787
:10115600FF93EF930E94FD17EA93E7E10E940418BC
:10116600EA9FF001AF91BF91EA0FFB1FE883F98375
:10117600A881B981E8E5F2E00E944B1D0E940B1898
:101186000E94FD17DF01EAE0F0E00E94631D0E9465
:1011960010180E94FD17ACE3B0E00E943E1DFF93BD
:1011A600EF930E94EC170E941518F0E0AF91BF91E3
:1011B600EA0FFB1FE883F98332C0E0E0E0934A04BC
:1011C600A0914A04A73168F4B0E0A958BE4FE09157
:1011D6004A040E941C18E0914A04EF5FE0934A0417
:1011E600EFCFA0916A01A53039F00E9422180E9423
:1011F6002718AC91AA3A69F40E9434180E94221862
:10120600A491AF3F29F4E0E0E0936B01EFEF07C054
:1012160006C00E9422180E9427180E943F18229694
:1012260008952897E0E0E883E983EA83EB83EC837B
:10123600ED83EE83EF831A9310E0E0934B04A091C5
:101246004B04A73168F4B0E0A958BE4FE0914B04B7
:101256000E941C18E0914B04EF5FE0934B04EFCF24
:10126600E0914B040E94B216E081E03021F4E09157
:101276004C04EF5F01C0E0E0E0934C04A0914C0405
:10128600A93110F032FC01C080C1A0914D04A230FA
:1012960028F4E0914D04EF5FE0934D04E0E0E09325
:1012A6004C04E89432F8F89410E0E09115031E1708
:1012B60010F00C94C70AA12FB0E0A759BE4FEC91CD
:1012C600EF5FEC930E940E170E942F16ED83FE83AC
:1012D6006F837887AD81BE818F819885A030ECE3DE
:1012E600BE07ECE18E07E6EC9E0721F0A0914D04C7
:1012F600A23008F432C10E9448180E944D18FF938C
:10130600EF93AD81BE818F819885E0E0F0E060E2E9
:1013160071E40E94471CAF91BF910E948D1BED9313
:10132600FC93E091E502E11711F00C94AA0AE09112
:10133600EE02EF5FE093EE02E150AFE0B3E00E9411
:1013460052180F010E9448180E943B17D001ED93D6
:10135600FC93A091EE02A33011F00C94AA0AE0E0EF
:10136600E093EE02E0934E04A0914E04A43078F48C
:101376000E9454180E9452180F010E9459180E9488
:10138600821DD001ED93FC930E946118EDCF0E945F
:101396006718A0914E04A33068F4E0914E04AFE0C4
:1013A600B3E00E946F180E9471180E9476180E947E
:1013B6006118EFCF0E947118E0E0F0E060E470E49D
:1013C6000E94951CADE0B3E00E948D1BED93FC934B
:1013D6000E946718A0914E04A33098F40E945918F1
:1013E6000D901C900E9454180E946F18DF01F001A6
:1013F600EA1BFB0B0E9471180E9476180E94611866
:10140600E9CF0E947118E0E0F0E060E870E40E9425
:10141600951CE983FA836B837C830E9481180F01F4
:101426000E9486183CF40E948E18E015F10514F40B
:1014360034FE01C05FC0E0910D03F0910E03A09150
:101446000B03B0910C03EA1BFB0B0F01E0910B039E
:10145600F0910C03A0910903B0910A03EA1BFB0B60
:10146600E00DF11D0E942A1D0E94C41BDF01CB0165
:10147600E0E0F0E060E070E40E94951CDF01CB0143
:10148600E981FA816B817C810E94DA1C58F4A09173
:101496000D03B0910E03E0910B03F0910C03AE1710
:1014A600BF070CF006C0689435F8E4E0E093D0027C
:1014B60002C0E89435F80E9471180E94CF1DBCF452
:1014C6000E9481180E949318AE1BBF0BE981FA8116
:1014D6006B817C810E942F1D0E94921D0E94951C8B
:1014E6000E948D1BA0917401EA0FE093D202E8944A
:1014F60034F82DC00E9481180E94861814F034FE1C
:1015060001C00CC0E89435F8E3E0E093CC0268949F
:1015160034F8E0917501E093740119C034FC15C0EC
:10152600E0E0E0934E04A0914E04A53070F40E94D2
:101536005418F0E0EE0FFF1FAE0FBF1FECE9FFEFF0
:10154600ED93FC930E946118EECFE89435F80E9463
:101556008E16E759FE4FA0E0A0830E948E16E7592B
:10156600FE4FA081AF3F51F40E944818EE0FFF1FB7
:10157600AE0FBF1FE9E1FCEFED93FC930E940E173F
:101586000E941B161F5F91CE7894A0916A01A53028
:1015960039F00E9498180E94A018AC91AA3A69F4F2
:1015A6000E9434180E949818AC91AF3F29F4E0E0ED
:1015B600E0936B01EFEF07C006C00E9498180E94E7
:1015C600A0180E943F1818812B9608950E94DA1DD4
:1015D60010E000E030E010E0183130F5353039F039
:1015E6000E94AD180E94B118AC91AA3A49F40E9423
:1015F6008E16E958FE4FA0E0A08330E00F5F0DC0C5
:101606000E948E16E958FE4FBF010E94AD180E9437
:10161600B118EC91DB01EC933F5F0E94AD18A491E9
:10162600AF3F11F01F5FD8CF0E94DF1D26960895A9
:10163600219700E010E030E020E051E041E1E0E0F9
:10164600EBBBEFEFEABBE0E0E8BBE3EEE7BBE0E0D5
:10165600E5BBEFE3E4BBE0E0E2BBE0ECE1BBE3E0EB
:10166600E3BFEEEFECBFECE0EEBDE4E1F0E0FBBD86
:10167600EABDE8E0E2BDE5E0E5BDEFE7F0E0FBBD91
:10168600EABDE3ECE9BFE8E4E8B9E0E0E0BFE5B7CE
:10169600E063E5BFE3E8E6B9E7E6E7B9E0E0E09353
:1016A6006D01A0916D01A930D8F4E0916D01A3ED13
:1016B600B2E00E945218BF01E0916D010E94BC1871
:1016C6000F010E94C018AE53BD4FE0E0EC93D0016D
:1016D600EC93DB01F0E0ED93FC930E94B217E1CFAF
:1016E600E89422F80E947B03BE2EA6E0B0E0E9E073
:1016F6000E94BA1D1EDBCFDC0E94031730E0E0918A
:1017060015033E1758F4A9E03A9FF001E955FD4F3D
:10171600FA93EA930E9416173F5FF1CF7894E0E0C0
:101726005E1618F0E6E0E51510F4E5E05E2EA7E09B
:10173600B0E00E94A61DE03020F0AE2FEFEFEA17D2
:1017460028F4A7E0B0E0EFE00E94BA1D50927301C2
:101756000E941E05A0DC0E94EC040E94C904E42D30
:10176600F0E0EA30A0E0FA0789F50E94C4185ADBD7
:10177600E09176017E1638F0E0913F04F091400446
:101786000E94CB1809F004C00E94CF18E03009F47B
:1017960006C00E94D4180E94CF18E0936F01E2E0C1
:1017A600ED1551F40E94DC18E89422F80E94E51821
:1017B6000E94E7180E947317E1E0ED1529F40E94D4
:1017C600D418E8E1E0936F010C942B15EB30A0E000
:1017D600FA0711F00C94190F0E94F5180E947B036A
:1017E600BE2E0E94FB180E94FB180E94FB180E9446
:1017F600FB180E94FB1833FE11C00E9407190E94B5
:101806000C19E456FC4FA491AF3F41F00E94131906
:10181600E456FC4FE491DB01EC93F1CF0E942519CD
:10182600AAE2A0830E948E18A0910503B091060338
:10183600EA17FB072CF4A0E034FCA1E0A03009F085
:1018460054C00E942F19AE0FBF1FA03AE5E0BE0795
:1018560024F4A091D202A13008F42CC00E940719EA
:101866000E940C19E458FC4FA491AF3F41F00E942E
:101876001319E458FC4FE491DB01EC93F1CF0E947D
:101886002F19EA0FFB1F8F0121E0253098F40E94E3
:101896002519FF93EF931A930A932A9392DAAF913D
:1018A600BF91EC93223021F40E942519ABE2A0836C
:1018B6002F5FEBCF0E942519AAE2A08335FE11C047
:1018C6000E9407190E940C19E457FC4FA491AF3FE0
:1018D60041F00E941319E457FC4FE491DB01EC93AD
:1018E600F1CF0E942519AAE2A083E0916F01E17071
:1018F600D9F00E9407190E9433190E940C19E60FAD
:10190600F71FA491AF3F61F00E943B190E94331963
:101916000E944219E60FF71FE491DC01EC93EBCF2E
:101926000E942519AAE2A083E0916F01E270A9F155
:10193600E9E0E61540F40E942519BF01A62D0E9494
:10194600DB17DB01EC930E942519BF01A62DBB27EF
:101956000E9469170E944E19AAE2A0830E940719E5
:101966000E9437170E9451190E940C19E60FF71FA3
:10197600A491AF3F71F00E943B190E9437170E9455
:1019860051190E944219E60FF71FE491DC01EC930E
:10199600E7CF0E942519AAE2A083E0916F01E470C7
:1019A60001F10E942519A2E0A0830E942519A0E05A
:1019B600A0830E942519BF01A82DBB270E94591993
:1019C6000E944E19BF01A82DBB270E9469170E94CD
:1019D6004E19ADE0A0830E9425190E945C19AAE267
:1019E600A083E0E0E0936E01E0911503A0916E0103
:1019F600AE1710F00C94D60DE0917001E883E091DB
:101A06006E01E03081F40E945F19EC54FC4FA49102
:101A1600AF3F41F00E946519EC54FC4FE491DB01A5
:101A2600EC93F1CF69C0A0916E01A13081F40E94C0
:101A36005F19E654FC4FA491AF3F41F00E9465192F
:101A4600E654FC4FE491DB01EC93F1CF55C0A09135
:101A56006E01A23081F40E945F19E052FC4FA491FE
:101A6600AF3F41F00E946519E052FC4FE491DB0163
:101A7600EC93F1CF41C0A0916E01A33011F0A430D8
:101A860041F50E945F19EE53FC4FA491AF3F41F020
:101A96000E946519EE53FC4FE491DB01EC93F1CF04
:101AA6000E942519ACE2A0830E942519A4E3A08315
:101AB600A0916E01A33021F40E942519A1E003C074
:101AC6000E942519A2E0A0830E942519AAE2A083FC
:101AD60013C0A0916E01A53079F40E945F19E652F9
:101AE600FC4FA491AF3F41F00E946519E652FC4FAE
:101AF600E491DB01EC93F1CF0E942519A8E3A083C2
:101B06000E947619309761F00E947619FF2322F41D
:101B16000E942519A3E303C00E942519AFE2A08302
:101B26000E9476190E947F19E436A0E0FA076CF04D
:101B36000E942519FF93EF930E9476190E947F1940
:101B46000E948319AF91BF91EC930E942519FF93D0
:101B5600EF930E9476190E947F19DF010E9459199E
:101B6600AF91BF91EC930E942519ABE2A0830E942E
:101B76002519FF93EF930E9476190E947F19DF01C2
:101B86000E946917AF91BF91EC930E942519A0E3BB
:101B9600A0830E942519AAE2A083E0916E01EF5F5F
:101BA600E0936E0121CF0E942519ACE0A0830E942C
:101BB6002519A8E1A0830E942519ABE1A0830E9404
:101BC6002519AFE1A0830E942519A8E1A0830E94F0
:101BD6002519AEE0A0830E942519A8E3A08321E081
:101BE600253028F5213091F4A091F102B091F2024E
:101BF6000E945717309749F00E942519FF93EF93DB
:101C06000E948919AF91BF91EC9309C00E942519D2
:101C1600FF93EF930E948919AF91BF91EC93223005
:101C260021F40E942519ABE2A0832F5FD9CF0E9431
:101C360025190E945C19A0E1A0830E942519AAE03B
:101C4600A0830E942519A4E1A0830E942519AAE079
:101C5600A0830E942519ACE1A0830E942519A8E360
:101C6600A08321E0253028F5213091F4A091F302DC
:101C7600B091F4020E945717309749F00E94251937
:101C8600FF93EF930E949219AF91BF91EC9309C015
:101C96000E942519FF93EF930E949219AF91BF916D
:101CA600EC93223021F40E942519ABE2A0832F5F2A
:101CB600D9CF0E942519AAE2A08351E042E18416F9
:101CC60038F0555F5F3110F00E949B194F5FF7CFD8
:101CD600E92DE60D5E0F5F3110F00E949B195E3113
:101CE60010F4513008F451E05A3080F00E94251962
:101CF600BF01A52F0E94DB170E944E19BF01A52F19
:101D0600BB270E946917DB01EC9303C00E942519CB
:101D160050830E942519AEE2A0830E942519A3E1F3
:101D2600A0830E9425190E945C19A5E1A0830E9448
:101D36002519ADE1A0830E9425190E94A0190E94D1
:101D4600A019A5E2A0830E942519A3E1A0830E9401
:101D560025190E945C19AEE0A0830E942519AFE008
:101D6600A0830E9425190E94A019A6E2A0830E94C2
:101D760025190E945C190E945C19FF93EF930E943B
:101D8600C418E1E0EA930E94E406AF91BF91EC9398
:101D96000E942519FF93EF930E94C418E2E0EA938C
:101DA6000E94E406AF91BF91EC930E942519ABE225
:101DB600A0830E942519FF93EF930E94C418E3E0C5
:101DC600EA930E94E406AF91BF91EC930E94251915
:101DD600FF93EF930E94C418E4E0EA930E94E4069E
:101DE600AF91BF91EC930E94A31960F00E94B419C1
:101DF6000E94BA19EF3F31F40E94C0190E944E08A2
:101E06000E94C519E2E0ED1511F40E94DC18E1E02C
:101E1600ED1559F4E0E0E0936A01E3E0E0936B012D
:101E2600EFE0E0936D010E944E0812C6EE31A0E08D
:101E3600FA07E1F40E94CA1930F00E94B419E6EEDE
:101E4600F3E00E94D419E2E0ED1519F4E8E20E94ED
:101E5600D819E1E0ED1549F40E944E08E0E0E09360
:101E66006C01E0936D01EFE14E2EF2C5EF31A0E07B
:101E7600FA0739F5E2E0ED1511F4E0E24E2EE1E065
:101E8600ED1561F4E0916C01EF5FE0936C01A091B8
:101E96006C01A93019F4E0E0E0936C010E94E019AE
:101EA600689427F80E94E619E89427F80E94EE192C
:101EB600E081E07811F0EFE201C0EEE20E94F11954
:101EC600C7C5E032A0E0FA0711F00C94B40FE2E0C7
:101ED600ED1549F50E94EE19E081E07809F1E091EF
:101EE6006C01A3EDB2E00E945218FF93EF93E091CC
:101EF6006C010E94F6190E94F919AF91BF91ED93FA
:101F0600FC93A0916C01A33028F40E94EE19AFEF68
:101F1600A0834FC0E0E0E0936D01E1E24E2E02C0E7
:101F26000E94C01993C5E1E0ED1541F40E94EE1937
:101F36000F01A081E0E8EA27D001EC930E94E019A6
:101F46000E94E619689427F80E94EE19E081E0786D
:101F560011F0EFE201C0EEE20E94F119E89427F8D1
:101F660077C5E132A0E0FA0711F00C9400100E9448
:101F7600FD19E4910E940B180E94FD193196E49117
:101F86000E9410180E94EE191080E0916D01EBD6A8
:101F960011F0EFE201C0EEE20E94F119E2E0ED1568
:101FA600E1F40E94B2170E944E08A0916D01A7307D
:101FB600A1F4EAE04E2EE0916C01F0E0EE53FD4F05
:101FC600FF93EF93E1E0EA93EFE0EA93E8E0EA9328
:101FD6000E945B08AF91BF91EC93E1E0ED1561F4CF
:101FE6000E94EE19BF011080E0916D01A1E00E94F0
:101FF600061DE125DB01EC932BC5E832A0E0FA07CC
:1020060011F00C944F100E94CA1930F00E94B419B6
:10201600EEEFF3E00E94D419E2E0ED1519F4E2E3E5
:102026000E94D819E1E0ED15B1F50E94C4180E948E
:102036009708E093EF02F093F0020E944E08E1E267
:102046000E94021A0E9410186A92EFE10E94091A71
:102056006E2EE6E10E94021AEA93E7E0EA930E94F6
:1020660032089A92ECE00E94091A9E2EEDE00E9438
:10207600021AEA93E5E0EA930E9432088A92E3E6BE
:102086000E94091A8E2EDD24EAE00E940E1A0E9492
:10209600C5190E94EC04DCC4E033A0E0FA07E1F5C0
:1020A6000E94CA1930F00E94B419EAE1F4E00E94D5
:1020B600D419E2E0ED1581F40E94151A0E944E082B
:1020C600ECE0E0936D01E0917301E51511F050909D
:1020D6007301EAE04E2EBCC4E1E0ED15E1F40E9486
:1020E6004E08E0917301EF5FE0937301A0917301D5
:1020F600A73018F0E0E0E09373010E941E05E0911E
:102106007301EA93EAE00E941B1A0E94151A0E94C4
:10211600F5180E944E089CC4E233A0E0FA07B1F419
:102126000E94CA1930F00E94B419E6E2F4E00E9457
:10213600D419E2E0ED1519F4E6E40E94D819E1E0BD
:10214600ED1519F4E3E30E940E1A82C4E333A0E00E
:10215600FA0711F00C946B11E2E0ED1519F4FFD6B5
:102166000E944E08E0916D01F0E03097A9F4E1E09D
:10217600ED1529F40E94CF18A1E00E94241A0E94AE
:10218600CF18E17011F0EFE201C0EEE22ED7EAE0DF
:10219600F4E00E942A1A9BC0E130A0E0FA07A9F4F5
:1021A600E1E0ED1529F40E94CF18A2E00E94241A5E
:1021B600E0E1F4E00E942A1A0E94CF18E27011F0C2
:1021C600EFE201C0EEE211D782C0E230A0E0FA07EA
:1021D600A9F4E1E0ED1529F40E94CF18A4E00E94CD
:1021E600241A0E94CF18E47011F0EFE201C0EEE26B
:1021F600FCD6E6E1F4E00E942A1A69C0E330A0E0CA
:10220600FA07C9F4E1E0ED1511F4E0E22E2625FE09
:1022160002C0EFE201C0EEE2E8D6E0E1F9D60E94A4
:102226002E1AE1E2EA93E9E0EA930E943208EBE132
:102236000E943A1A4CC0E430A0E0FA07C9F4E1E083
:10224600ED1511F4E0E12E2624FE02C0EFE201C0F6
:10225600EEE2CBD6E0E1DCD60E942E1AE4E1EA9368
:10226600E9E0EA930E943208E7E10E943A1A2FC099
:10227600E530A0E0FA0709F5E1E0ED1539F40E9432
:102286004E080E94151AE0E34E2E21C0E2E2C0D6A7
:10229600EAE1C3D6E2E1EA93EBE0EA930E94320870
:1022A600EEE1EA93E0E1EA930E943208ECE1EA9378
:1022B600E5E1EA930E9432080AC0E630A0E0FA0798
:1022C60031F4E4E34E2EE0917201E0936D01C0C358
:1022D600E433A0E0FA0749F5E0916D01A0913904D5
:1022E600B0913A04F0E0AE17BF0720F00E94B4198F
:1022F6000E94BA19E1E0ED1561F4E0916D01ED5F20
:10230600E0936D01A0916D01AC3318F0E9E0E09324
:102316006D01E2E0ED1541F4E0916D01E09372018B
:10232600E6E34E2E0E944E0893C3E633A0E0FA077A
:10233600C1F4E9B7EF77E9BF7DD50E94F919A4E0AA
:10234600B0E00E94B21D0E944E0879D50E94F9198C
:10235600A2E0B0E00E94B21D0E944E08E7E34E2EB6
:1023660077C3E733A0E0FA07E1F5E9E251D6EAE1FF
:10237600EA93E5E0EA930E943208E4E1EA93EAE0B0
:10238600EA930E9432080E943F1AEA93E2E1EA9336
:102396000E943208E9B7E260E9BF0E943F1AA7E14E
:1023A600EA02F001EB5FECBFE1E0ED1579F40E9483
:1023B6003F1AEF5F0E94BA1DE1500E943F1AEA30B1
:1023C60029F4A6E0B0E0E0E00E94BA1DE2E0ED15D7
:1023D60039F4E9E34E2EE9B7E068E9BF0E944E08FA
:1023E60037C3E933A0E0FA07B9F5A7E0B0E00E94E9
:1023F600A61DE0936D01A0916D01E9D4DF01EAE02D
:10240600F0E00E945E1DECD5A0916D01E0D4DF01E5
:102416005DD5EBD5B2D64DD5EA93E3E0F2D5EA0227
:10242600F001E0936D01E0E0F3D5A7D642D5F5D5EE
:10243600C0D40E94661DF6D5A0916D01EA0FE09307
:102446006D01A7E0B0E00E94BA1D0E94EC04EAE329
:102456004E2E0E94151AFCC2EA33A0E0FA07B1F428
:102466000E94CA1930F00E94B419E2E3F4E00E9417
:10247600D419E1E0ED1521F4EBE34E2E0E944E084F
:10248600E2E0ED1511F4EAE04E2EE2C2EB33A0E0F5
:10249600FA07F9F497D698D60E94441A11F40E94C6
:1024A600C019E1E0ED15A1F4A0913804AF5FA09347
:1024B6003804A43018F0E0E0E09338040E944E0897
:1024C600E0913804EA93E8E00E941B1A0E944E0845
:1024D600BFC2E634A0E0FA07B1F40E94CA1930F090
:1024E6000E94B419EAECF3E00E94D419E1E0ED157C
:1024F60019F4E7E40E94D819E2E0ED1519F4E0E5D5
:102506000E94D819A5C2E734A0E0FA07B1F40E94E8
:10251600CA1928F026D7ECE3F4E00E94D419E1E0CA
:10252600ED1521F4E8E44E2E0E944E08E2E0ED158A
:1025360019F4E9E40E94D8198BC2E834A0E0FA073E
:1025460039F5EED50E944B1AEBD5B0D666D5E0E349
:1025560047D5E1E34AD5E1E0ED15A1F4E091F502B6
:10256600F091F6023A96E093F502F093F602D8D58A
:10257600AF3DE3E0BE0734F0E4E1F0E0E093F502BE
:10258600F093F602E2E0ED1511F4E7E40ED760C22F
:10259600E934A0E0FA0799F4FAD620F0E2D6EEE4A0
:1025A600F4E0FFD6E1E0ED1521F4EAE44E2E0E94B8
:1025B6004E08E2E0ED1511F4EBE4F7D649C2EA3431
:1025C600A0E0FA0751F50E94501A0E944B1A0E9489
:1025D600501A6CD622D5E0E303D5E1E306D5E1E057
:1025E600ED15A9F498D53A96E0930303F093040306
:1025F600E091F502F091F6020E94501AAE17BF075D
:1026060034F0EAE0F0E0E0930303F0930403E2E041
:10261600ED1511F4E9E4C9D61BC2EB34A0E0FA07C4
:1026260099F4B5D620F09DD6E0E6F4E0BAD6E1E01E
:10263600ED1521F4ECE44E2E0E944E08E2E0ED1575
:1026460011F4EDE4B2D604C2EC34A0E0FA0701F5C9
:10265600A0917501ADD4DCD4A0917501BB2736D409
:10266600DCD4E6E1BDD4EBE2C0D4E1E0ED1551F4F3
:10267600A0917501AF5FA0937501AC3318F0E0E04F
:10268600E0937501E2E0ED1511F4EBE48ED6E0C1BE
:10269600ED34A0E0FA0761F5EDE2BAD4E9E3EA9396
:1026A600E8E0EA930E943208A0E037FCA1E0A030FF
:1026B60011F4EEE201C0EFE2DAD6E1E0ED1559F4ED
:1026C600E0E037FCE1E0F0E0319716D60E94D51D38
:1026D60037F80E944E08E2E0ED1549F4E6E44E2E86
:1026E600A1D637FE02C0E89434F80E944E08B0C165
:1026F600E035A0E0FA07A9F44AD620F032D6E2EF98
:10270600F3E04FD6E2E0ED1521F40E94EC04EAE591
:102716004CD6E1E0ED1521F4E1E54E2E0E944E087F
:1027260097C1E135A0E0FA0709F5689420F84AD583
:102736004BD5A7D621F4E2E54E2E0E944E08E1E0E5
:10274600ED1599F4E8E2E71568F4AFEEB2E015D3BB
:1027560039D3A03AE5E0BE0729F4E0E0E093EF02C2
:10276600E093F0027724E0E0E4BD72C1E235A0E038
:10277600FA07B1F5E2E0ED1511F4E3E54E2EE1E0DE
:10278600ED15A9F4CED21AF48DD63A9702C08AD6A0
:102796003A96A0E0B0E00E94B21D89D683D6ACD5A9
:1027A600E835A2E0FA071CF0C2D290D380D6B9D29F
:1027B60012F4EEE201C0EFE22BD4689427F872D649
:1027C6009BD59ED52AD46ED697D5DF016FD574D604
:1027D600E89427F867D690D5DF0178D306D438C1B8
:1027E600E335A0E0FA07E1F5E2E0ED1511F4E4E5E2
:1027F6004E2EE1E0ED15D9F494D26AF453D6319712
:102806000E94B21D319693D261D3309719F44AD6FD
:102816003A964DD60CC046D631960E94B21D3197D7
:1028260086D254D3309719F43DD63A9740D679D20A
:1028360012F4EEE201C0EFE2EBD334D65DD560D5FB
:10284600ECD330D659D5DF0131D536D6689427F882
:1028560029D652D5DF013AD3C8D3E89427F8F8C071
:10286600E435A0E0FA0731F5E2E0ED1509F485D587
:10287600E1E0ED1531F416D6AFEFBFEF0E94461D2D
:1028860016D6689427F84DD212F4EEE201C0EFE2B4
:10289600BFD3E89427F806D62FD532D5BED302D6B5
:1028A6002BD5DF0103D508D6FDD526D5DF010ED3FE
:1028B6009CD3CEC0EA35A0E0FA07B1F468D520F083
:1028C60050D5EAEAF3E06DD5E2E0ED1519F455D5F9
:1028D6000E944E08E1E0ED1531F4EBE54E2EA2D54F
:1028E60030E00E944E08B4C0EB35A0E0FA0711F0C4
:1028F6000C94FB14E0E0E093700186D4303071F460
:1029060088D4EC54FC4FA491AF3F39F089D4EC54F1
:10291600FC4FE491DB01EC93F3CF52C0313071F4FC
:1029260078D4E654FC4FA491AF3F39F079D4E654FD
:10293600FC4FE491DB01EC93F3CF42C0323071F4EB
:1029460068D4E052FC4FA491AF3F39F069D4E0520D
:10295600FC4FE491DB01EC93F3CF32C0333011F03E
:102966003430F9F456D4EE53FC4FA491AF3F39F00E
:1029760057D4EE53FC4FE491DB01EC93F3CF62D4D2
:10298600ACE2A0835FD4A4E3A083333019F45AD415
:10299600A1E002C057D4A2E0A08354D4AAE2A08347
:1029A6000FC0353069F435D4E652FC4FA491AF3FE1
:1029B60039F036D4E652FC4FE491DB01EC93F3CFC9
:1029C600BFD410F0CED4D3D4E1E0ED1521F4ECE57C
:1029D6004E2E0E944E08E2E0ED1549F43F5F363078
:1029E60018F030E0EAE54E2E1DD50E944E0830C0A4
:1029F600EC35A0E0FA0761F5EEE00AD3EBE20DD381
:102A0600ECE2EA93E8E0EA930E943208E4E32FD589
:102A160085D1EB51FD4FE081E8D2E1E0ED1581F47F
:102A2600A32FB0E0AB51BD4FEC91EF5FEC93E930D3
:102A360028F074D1EB51FD4FA0E0A0830E944E0810
:102A4600E2E0ED1529F4EBE54E2EECD40E944E089B
:102A5600A091CD02A130A0F0E091F102F091F20236
:102A6600F3D174F4E091F302F091F40291D344F4BB
:102A7600A0910D03B0910E034ED3EA17FB070CF09D
:102A860002C0AA9A03C0E89436F8AA9821FE42C06A
:102A96000E949C06E89421F8AA24E9E0AE1640F5C7
:102AA600EA2DA1D475D359F4EA2D63D3E081E078F9
:102AB60031F0EA2D5ED31080EB2D55D109F402C01A
:102AC600689422F8EA2D8FD4DF01EA2DF0E0EE5368
:102AD600FD4FE0817AD25CD349F4E89422F8E3E032
:102AE600AE1620F4EA2D45D3A0E0A083A394D5CF5B
:102AF60069D1ECE3F0E00E94661D309721F4E1D441
:102B060014F025FC01C006C0689423F8E5E0DED485
:102B1600E9BFCC2422FE02C020FC02C023FE03C073
:102B2600E3E0D4D403C0C598E9B7EF7EE9BFA0912E
:102B3600CF02A13020F020FE02C0C3D40CF403C0A3
:102B4600E9B7E061E9BFA091D002A13030F020FEE4
:102B560004C0B7D414F037FC01C003C0E9B7E06184
:102B6600E9BFA091CC02A13040F0ABD434F0A091E3
:102B76007401A03011F437FC01C003C0E8E0A6D40C
:102B8600E9BF30FC06C0E0E8E8B98895EBE4E8B9AF
:102B9600F8CF0C94B00BFFCF1A930E94881AE0303E
:102BA60011F4E0E087C0E981FA81309789F0E5E524
:102BB600EA930E94CE1A10E0A981BA81ED91A98309
:102BC600BA83EA930E94CE1A1F5F1830A8F304C096
:102BD600ECECEA930E94CE1AE1E06CC00E94DA1D8A
:102BE600EC81FD8178D4E03011F4E0E01DC0EEEB1D
:102BF600EA930E94CE1A10E020E631E03F932F932D
:102C06002F5F3F4F0E94C91AAF91BF91EC931F5F90
:102C16001930A0F3E0E6F1E0FA93EA93E9E0EA93EB
:102C26000E94481B0E94391D0E94DF1D26960895AA
:102C360055D4A0916401B0E0E5E00E94171DE37051
:102C46001E2FE981FA8147D4A0E00E94341DE4E4F6
:102C5600EA930E94CE1A2EC041D4E03011F444D437
:102C660029C013E0E981FA8136D4E03011F43CD46E
:102C760021C0E981FA81FA93EA93B0DFE03011F4DA
:102C860033D418C00E94881AE12FA0E7B4E007D217
:102C96000E948C1DA0916001B0916101EA23FB2383
:102CA6000E942A1D0E94C41BA0E0B0E080E89DE3BC
:102CB6000E94471C188123960895EB81FC810BD452
:102CC600E03011F4E0E022C0E881E295E07FEE0F0B
:102CD600EF61E883EEE4EA930E94CE1AE981EA9373
:102CE6000E94CE1AEA81EA930E94CE1AE881EA93FC
:102CF6000E94CE1AE8E4EA930E94CE1AEFE0F0E0D2
:102D0600FA93EA930E947C1A0E94881A25960895DF
:102D1600E02FF0E00895E12FF0E00895E32FF0E0D2
:102D26000895A1E0B0E00E94A61DEE230895A0E05C
:102D3600B0E00E94A21DDF010895EAE0F0E00E94E3
:102D4600661DA9E1EA02F0010895E8E5F2E00E94B5
:102D5600661DDF01EAE0F0E00E945E1D0895F0E0E6
:102D6600E958FE4F0895A1E0B0E00E940E1DA12D86
:102D7600B0E0EA23FB2330970895ED91FD9131965B
:102D8600FE93EE930895A0914504B09146040895EC
:102D9600E0E0E0934504E09346040895A0914704DB
:102DA600B09148040895E0E0E0934704E0934804B6
:102DB6000895A7E0B0E00E94A61DF0E0DF01ECE375
:102DC600F0E00895A091EF02B091F0020895BB27BC
:102DD600ECE3F0E00E94661D0895A5E0B0E00E94D5
:102DE6003E1D08950A921A92FA926A937A938A93EA
:102DF6009A93AA93BA93EA93FA93EFB7EA9308954C
:102E0600E0EFEA93E7EAF2E0FA93EA930E94D81A2F
:102E1600E09315030895A9E01A9FF001E955FD4FC7
:102E2600FA93EA930895E3EDEA93EAE5EA93E2E09A
:102E3600EA9343CFA4E0B0E00E94A21D0895A2E069
:102E4600B0E00E94A21D0895BDDFAE17BF0708952A
:102E5600A6E0B0E00E94A61DA7E1EA02F001EF5F3E
:102E6600ECBFE9B7E2600895E92DF0E031970895E7
:102E7600EE0FFF1FAE0FBF1F0E94821D08950E9416
:102E8600201DAE0FBF1F0E94861DDF01CB01E62D60
:102E9600F0E00E942A1D0E94C41B0E94471C0E944B
:102EA6008D1B662777270895E8E5F2E00E945E1DF0
:102EB6000895ECE3F0E00E945E1D08950E94661DF1
:102EC600DF01EAE0F0E00E945E1D0895EAE0F0E02E
:102ED6000E94661D0895E0913D04F0913E04089518
:102EE600E0933D04F0933E040895EE81FF81FA934A
:102EF600EA931A930C94E406EEDFFA93EA931A9394
:102F06000C94E40600906D01112405CFDE011196A4
:102F1600AE0FBF1FEC91F0E0E00DF11DE958FE4F3A
:102F26000895A5E0EA9FF001EA5EFC4FDF01E0911B
:102F36006D01F0E0AE0FBF1F08950E949B1DEA1BB6
:102F4600FB0B0895BF011080E0914904A1E00E94A7
:102F5600061D0895E095E121DB01EC93C6CFE091D3
:102F66006D01EF5FE0936D010895EA81A5E0EA9FA8
:102F7600F001EA5EFC4FDF01EE27A10FBE1F0895A8
:102F8600A12FBB27E981F0E0EA0FFB1FE958FE4FAE
:102F96007E2F8F2F08956C91E0E020FCE1E0A0E801
:102FA600EA02F0010895E60FA72FB82FEC930895D3
:102FB600B0E0EAE0F0E00E945E1D0895EA5EFC4F94
:102FC600DF01EE27A10FBE1FE6CFF0E0EA0FFB1FE1
:102FD6000895A881B981ECE3F0E00E94631D08958D
:102FE600EA93EDE0EA930C943208EA93E3E1EA937C
:102FF6000C943208A881B981ECE3F0E00E944B1DE5
:103006000895EA93E0E0EA930E945B08ACE3089532
:10301600EA93E0E0EA930C943208EA93E6E0EA9356
:103026000C943208EA93EBE3EA93EDE0EA930C940E
:103036005B08F0E0E858FE4FE081EC930895E091DC
:103046006B01A881B981C1CFE491A5E0EA9FF001A7
:10305600EA5EFC4FDF01E0916A01F0E0AE0FBF1FB0
:103066000895E0E0E0938E01E0936A01E0916B0140
:10307600EF5FE0936B010895EC91E0938E01E09190
:103086006A01EF5FE0936A010895E12FA7EFB2E0CE
:10309600F0E00895EE0FFF1FEA0FFB1F0895F0E022
:1030A600F9CFE0914E04A5E0B3E00895A0914E0457
:1030B600BB27AA0FBB1FA95FBC4F0895E0914E0422
:1030C600EF5FE0934E040895E0E0E983EA83EB8343
:1030D600EC83E0934E040895F0E0CACEA981BA814C
:1030E6008B819C8108950E942A1D0E94C41B0E9408
:1030F600F71BE983FA836B837C830895E091E502ED
:10310600A7EFB2E0E9CFDF01E091F502F091F60218
:10311600AE17BF070895E0910303F09104030895E5
:10312600A091F502B091F6020895E0916B01A98590
:10313600BA85F0E0AE0FBF1F0895EC91A5E0EA9FB7
:10314600F001EA5EFC4FDF01E0916A01F0E0AE0FAC
:10315600BF1F0895E02FAC81BD8137CFE491A5E074
:10316600EA9FF001EA5EFC4FDF01EE27A30FBE1FC8
:103176000895F0E0E754FD4F0895A0916D01B0E089
:103186000895E091EF02F091F002FA93EA93089520
:1031960019DEEA17FB070895A8E0B0E00E94A61D15
:1031A6000895EBE04E2EE0E0E0936A01E0936B01B8
:1031B6000895EEE14E2EE0E0E0936A01E0936B01A4
:1031C6000C944E08FFDD75CEACE3B0E00E94461DC0
:1031D600F9DDAE1BBF0BECE3F0E00E94461DDF01FC
:1031E600E72DF3CEE0E0E0937001E0936E010895E1
:1031F600E0917001EF5FE0937001E150F0E0E1577C
:10320600FE4FADE2A0830895E0917001E0936E0158
:103216000895A0917001BB27E0916E01F0E08DCE7C
:10322600E0917001F0E0E157FE4FBF01E0917001BF
:10323600EF5FE0937001E150F0E0DF01E0916E0195
:10324600F0E07BCEE0917001EF5FE0937001E1501A
:10325600F0E0E157FE4F0895E091D202F0E0B2CDE2
:10326600EB2DACE0EA9FF001EC5AFF4FBF01089549
:10327600E0917001F0E0E157FE4FCF010895E09133
:103286007001EF5FE0937001E150F0E0DF01E09143
:103296006E01F0E052CEDB01EC93D4CFA9E0B0E0B2
:1032A6000E943E1DEA54FF4FBF010895E4E6F0E098
:1032B60005CEAAE2A083C6CFA0917001BB27E88104
:1032C600F0E03BCEE0917001F0E0E157FE4FBF0128
:1032D600E0917001EF5FE0937001E150F0E0DF01F3
:1032E600E881F0E02ACEE0916E01F0E0EB51FD4F6F
:1032F600E081A7EFB2E0F0CEFA93EA930C946C0368
:10330600DF01E4E6F0E00E945E1D0895E091F1021F
:10331600F091F202FA93EA932A930C94E406E09170
:10332600F302F091F402FA93EA932A930C94E406DA
:10333600E52FF0E07E975E2F0895A7E1A08382CF68
:10334600E0917001F0E0E157FE4FAFEFA083E0910E
:103356007201A0913904B0913A04F0E0AE17BF07AC
:103366000895E0E0E0933904E0933A040895EFE825
:10337600F1E0FA93EA930C9414090E94EC04EAE053
:103386004E2E0895E091EF02F091F002A9CDE09162
:103396007201A0913904B0913A04F0E0AE17BF076C
:1033A6000895FA93EA930C94E0084E2EE0E0E09339
:1033B6006A01E0936B010C944E08EBE0EA93E1E0BE
:1033C600EA930C943208E0916C01EF5FEA93E7E030
:1033D600EA930C943208E0916C01CBCEEA93E1E1DA
:1033E600EA930C943208A3EDB2E076CEFA93EA9310
:1033F6000C949708E0916D01A8EAB0E050CEEA93EC
:10340600E1E0EA930E943208EBE20895EA93EDE0E8
:10341600EA930C945B084E2E0E944E08E0E0E0937F
:103426006D010895E0E0E0936A01E0936B01089571
:10343600EA930E943208E8EEF3E0FA93EA930C94DA
:103446007C1AEA27A8E0B0E00E94BA1D0895FA9314
:10345600EA930C94E90AECE0EA93E4E0EA930E942A
:103466003208EBE2EA93E8E0EA930C943208EA9336
:10347600EEE0EA930C943208A6E0B0E00E94A61DA6
:103486000895FA93EA930E941507E2E0ED15089570
:10349600E4E6F0E00E945E1DBBCDA0910303B0916F
:1034A60004030895A0E0B0E00E94A21D0895A0E0E4
:1034B600B0E00E94B21D0895EA93ECE0EA930C9402
:1034C600320880DCA53FE1E0BE070895E093D10213
:1034D600E9B7E0610895FA93EA935ECB1A93E9811E
:1034E600FA81FA93EA937ACBE0E0FCE36CE176ECBE
:1034F6000895E991F991309639F080ED97E00197BA
:10350600F1F7A8953197C9F70895EE27C498BC9AA4
:1035160080EC93E00197F1F7BC9885E28A95F1F784
:10352600B49B08958BEC8A95F1F7B49BE1E08CE0AF
:1035360093E00197F1F70895BC9A85E08A95F1F733
:10354600BC988DE18A95F1F78894B4990894E7952B
:1035560085ED8A95F1F70895E894BC9A85E08A95F9
:10356600F1F770FDBC9883E28A95F1F7B49903C030
:1035760070FF03C0089570FF089588EC8A95F1F7EF
:10358600BC988DE08A95F1F76894089568E0D4DFD9
:103596006A95E9F7089568E07991EE27DDDF26F46C
:1035A60077956A95D9F7E39508954F935F9311241C
:1035B6004427A881B981012C1124A7DFEE23F9F055
:1035C600EA81EA93E8DF51E0501598F4B5DFE7FDAC
:1035D60008C0B2DFE7FD06C03FD0892319F4152ED7
:1035E60001C0AADF39D0892370E009F071E0B4DFA9
:1035F6001EC0A2DFE7FF0BC09FDFE7FF05C0E42F79
:103606005F914F9123960895689437D0EFCF94DF5A
:10361600E7FF01C003C0501531F0152EE8942DD0F8
:1036260077279ADF04C0689428D071E095DF539518
:10363600513454F281DFEE1FEE1FE1701896EC93C1
:10364600189743951120D9F259E0EC911996EC930D
:1036560018975A95D1F7AFCFE52FEA956E2FE695D5
:10366600E695E695FF27EA0FFB1F808191E06770DC
:1036760019F0990F6A95FCCF0895EEDF1EF090952C
:10368600892301C0892B80830895EE2788818823AA
:1036960081F068E1A981BA8198E0FD917F2F7E27AC
:1036A600779508F4E627E795F6959A95B9F78A95FA
:1036B60099F723960895552342F4503811F4E0FF04
:1036C60004C03196691F791F6BF050E8572711F433
:1036D6005F93C8C05F3F31F0660F000C5795679542
:1036E600752F08955F9300200AF0C8C0C1C050E846
:1036F600192E1522880F991F9527550F879550E883
:10370600072E0522660F771F7527550F67950895B3
:10371600689401C0E8945F93F2DF703818F07F3F39
:1037260008F4A0C056E1571BAAF4519558300EF480
:10373600593030F0EFEFFFEF6FEF7FE777F91AC000
:1037460077275523B9F0EE0FFF1F661F771F5A958F
:10375600D1F710C07727583028F0EF2FF62F672FB4
:103766005850F9CF552331F076956795F795E7953B
:103776005A95D1F700200AF43ED15F9108956894D6
:1037860001C0E894309760407040B1F0002426F004
:10379600772312F400942FD1172E7EE1112032F0F8
:1037A6007A95EE0FFF1F661F111CF9CFEF2FF62F2C
:1037B600612D5F938ADF5F9108954F93AF01FD01FD
:1037C600DA01AB01BC01CA01402D012C142E4F9128
:1037D6000895EA0FFB1F681F0895E095F095609520
:1037E600EF5FFF4F6F4F08955F9381DF903839F198
:1037F600703821F1572F591B2BF112F4DEDFFACF67
:10380600583118F0AA27BB278827583028F0AB2F45
:10381600B82F88275850F9CF552329F08695B795A4
:10382600A7955A95D9F7502D512572F0D2DF38F465
:103836006795F795E795739513F420C0BEDF45DFCE
:103846005F910895D8F7FBCFEA1BFB0B680B51F08D
:1038560010F40094C2DF662392F3EE0FFF1F661F7B
:103866007A95CBF7EE27FF27662777275F9108958E
:10387600EFEFFFEF6FE77FEF5F910895EFEFFFEF59
:103886006FE77FE75F9108955F9331DF703851F3FB
:10389600903841F301240894791F23F41CF3002087
:1038A6003AF3ECCF0F921F932F933F934F93112729
:1038B60022279927689FA0018F9F302D410D591F00
:1038C6006B9F300D411D591F8E9F27D0BF9F25D05E
:1038D6006A9F23D0BE9F1DD0AF9F1BD0AE9F110DF8
:1038E600291F391F491F591FE32FF42F652F522F08
:1038F6004F913F912F911F910F9066232AF0550FFC
:10390600EE1FFF1F661F02C073954BF2D4DE5F9158
:103916000895100D211D391F02C0200D311D491FAC
:10392600591F08955F93E3DE703821F411200AF4DD
:103936009FCFA4CF903809F495CF01240894970B14
:103946001BF4D4F30020F3CF792F1F932F933F93CB
:103956004F9311241127222733274427552790E216
:10396600AE17BF078607410730F0AE1BBF0B860BAD
:10397600410B089401C08894551F221F331F111C48
:10398600AA1FBB1F881F441F9A9551F7F901612D85
:103996004F913F912F911F91662332F0550FEE1FE5
:1039A600FF1F661F7A9543F286DE5F91089599237D
:1039B6009AF0772342F0971748F029F4AE17BF071D
:1039C600860720F031F09894889408959894089486
:1039D60008951894889408957723C2F7971798F353
:1039E600A9F7EA17FB07680788F399F3ECCFF19577
:1039F600E195F0400895F09560957095E195FF4F3B
:103A06006F4F7F4F0895EE230E2EEA2F19F0EE0F1B
:103A16000A94E9F70895EE230E2EFD0121F0EE0F2C
:103A2600FF1F0A94E1F70895EE230E2EFD0121F003
:103A3600F595E7950A94E1F70895EE0FFF1FEE0F4F
:103A4600FF1F0895F595E795F595E79508956F2F6E
:103A5600660F660B762F08958B2F880F880B982F8D
:103A66000895EA17E1E009F0EE270895EE23E1E074
:103A760009F0EE270895FA9FF02DEB9FF00DEA9FCF
:103A8600E02DF10D08952DD0F6DF0EF4B0DF089588
:103A96000024112490E1AA0FBB1F001C111C0E1A52
:103AA6001F0A18F40E0E1F1E01C0A1609A9599F701
:103AB600FD01D001089515D0EBDF0EF498DF0895CF
:103AC600E7DFFD010895E894B7FF04C0A095B0951F
:103AD60011966894F7FD8BDFDBDFFD010EF487DFBF
:103AE6000895E894F7FF02C082DF6894B7FF06C026
:103AF600A095B095119600F8039400FA0895ED91FB
:103B0600FC9111970895ED91FD916D917C9113971C
:103B160008950590F491E02D0895689401C0E89405
:103B260001D030DE182E862F612D192E972F712D7C
:103B36001B2EBF2FF12D1A2EAE2FE12D08951196B3
:103B460002D0FE2F1197E199FECFFF93FFB7F894AD
:103B5600AEBBBFBBE09AEDB3FFBFFF91089507D0A0
:103B66001196EF93EF2F03D0EF9111970895E19BF4
:103B760002C0A895FCCF9FB7F894AEBBBFBBE09A36
:103B86008DB3E81719F0EDBBE29AE19A9FBF08954D
:103B960000240A160B06089500240A160B060806CA
:103BA60009060895E894EE2309F0689408953A9377
:103BB6002A931A930A9308953B812A8119810881D1
:103BC6000895AC0FBD1F05900D928A95E1F70895F3
:00000001FF
